S0100000626C696E6B696E672E73726563C6
S113000012C019C018C017C016C015C014C013C040
S113001012C011C010C00FC00EC00DC00CC00BC068
S11300200AC009C008C011241FBECFE5D4E0DEBF5A
S1130030CDBF02D02AC0E4CF82E087BB81E087BB7A
S113004080E881BB80E090E030E020E007C0E9EF89
S1130050F0E03197F1F700C000000196863BF3E031
S11300609F07ACF3C09882B3805882BB82E390E0D0
S1130070E9EFF0E03197F1F700C000000197009735
S1110080B9F7C09A832F922FE9CFF894FFCFDF
S9030000FC
